:020000040800F2
:1000000000110020D50000083F2D00082B24000817
:1000100000000000000000000000000000000000E0
:10002000000000000000000000000000C95B0008A4
:10003000000000000000000079380008DD6A0008B8
:10004000E7000008E7000008553E0008E700000848
:10005000E7000008EB0D0008FF0D0008130E000874
:1000600000000000E7000008E7000008E7000008C3
:10007000E7000008E7000008E7000008E7000008C4
:10008000E7000008E7000008E700000800000000A3
:10009000E7000008E7000008E7000008E7000008A4
:1000A000E7000008E7000008E7000008E700000894
:1000B000E7000008E7000008000000000000000062
:1000C0000348854600F058FC0048004709780008BE
:1000D000001100200448804704480047FEE7FEE77F
:1000E000FEE7FEE7FEE7FEE7616B0008C1000008DF
:1000F00030B50B46014600202022012409E00D46C0
:10010000D5409D4205D31D469540491B2546954047
:1001100040191546521E002DF1DC30BD70B500248B
:100120002546002801DA01244042002901DA012590
:100130004942FFF7DDFFAC4200D04042002C00D026
:10014000494270BDF0B51FB40646002082B0054696
:100150004024019100901BE0019922460F46304651
:1001600000F0F4FA049A059B801A994110D31046C6
:100170001946224600F0DAFA361A8F4101972246D4
:1001800001200021009F00F0D1FA38184D41009065
:100190002046641E0028DFDC019B00982946324679
:1001A00007B0F0BD03460B439B0703D009E008C925
:1001B000121F08C0042AFAD203E00B780370401C17
:1001C000491C521EF9D27047D2B201E00270401CA5
:1001D000491EFBD270470022F6E710B513460A46C7
:1001E00004461946FFF7F0FF204610BD0321001D0D
:1001F000401E037812021A43491EF9D51046704773
:10020000F8B502464A40D40F42004B0052085B0842
:100210009A4202D20246084611464A0023D0C30D34
:100220004A00DDB2120EAD1A202D35DA4902012640
:10023000490AF6058A19002C00D0524220214F1B92
:100240001146B9402A411018C20D9A4221D0002C03
:1002500017D0012D08DCDA05801AD20F8019D207D9
:10026000DBB200F09FFAF8BDDA05801A01234000E6
:100270001B06C01880185A428018CA0F1043490044
:1002800007E04908C2071143DA05801A80194008BF
:10029000801800F07FFAF8BD61000122511A001B9E
:1002A000F7E70122D2075140AAE70122D2075040C6
:1002B000A6E70000F0B507460846584087B0C00FD3
:1002C000049048000E46590040084908BC1A88416D
:1002D00005D2384631461E4617460B4602465800A0
:1002E000400810434CD0300D039040055900400D9C
:1002F000490D0590401A0290402872DA1803012136
:10030000000B09050843019004980092002805D0CD
:1003100001995242002088410092019002984021A8
:100320000A1A0199009800F001FA05460C466B463E
:1003300007CB00F01CFAC0197141039A0E0D00237F
:10034000D71756401A467A40164344D0049A002ADA
:100350002DD0029A012A039A15DC1205C01A914188
:1003600001263605001C7141D20F059ED20700936D
:10037000019202962A46234600F05AFA07B0F0BDD1
:1003800038463146FAE71605224A0F46B218C01A17
:10039000B74101210905001C4F4100187F4111465A
:1003A00018187941E20F10436D19644113E0E20718
:1003B0006D0815436408C2071443039A0126120509
:1003C000C01A91413605001C7141CE0740083043E8
:1003D0004908C01851412A46234600F01CFACDE7CF
:1003E000FFE7049801224000C117121A00238B4135
:1003F00004983146C417381AA141EEE730B40124FD
:10040000E407634030BC55E730B40124E4076140A1
:1004100030BC4FE70000E0FFF0B51FB488B00B9987
:100420000998002448400999C00F490049080991DA
:10043000C0070B990090490049080B910999089849
:10044000A64608431CD00B990A98084318D009986F
:1004500001244000420D4800410D09982405000385
:10046000000B204309900B980003000B20430B90D6
:1004700050181C494018002201901446104605E00F
:10048000002001460DB0F0BD032801DA034600E06C
:1004900003239C46C11A0AAE0AE05F0008ADED5B7B
:1004A0004F00F75B7D430027AA187C41491C5B1E67
:1004B0006145F2DD410004AB5A522104120C0A439B
:1004C000240C401C0828DFDB01980290009970463C
:1004D00001910090059B049A0799069800F0A8F9ED
:1004E000D0E700000DFCFFFFF0B50C465C4085B086
:1004F000E40FE40703944C00002664085900944676
:10050000490802460296224321D062460A431ED081
:100510006200570D4A000E032303550D01240246C5
:100520002C492405781B1B0B360B4018234326430C
:10053000614600901C46501AB44103D30098401CF9
:10054000009002E0921800985B41002803DA002036
:10055000014605B0F0BD0020012109050746864689
:1005600011E064461D46141BB54106D36546521B77
:10057000B341744607430C43A646CD0740084908DB
:10058000284392185B4105460D43EAD110461843B3
:1005900013D06046194650407140084306D060466B
:1005A000101AB34106D20122002306E000220123E3
:1005B000DB0702E00122D243531000987446010584
:1005C000381C6141029C039D0019694100F023F928
:1005D000BFE70000FD03000070B54B005B0803435C
:1005E0000BD04B005C0D002633466542B341D41757
:1005F000AD1AA34102DB0020014670BD1205301880
:10060000514170BD10B500229623114600F0CAF882
:1006100010BD00000EB5C217C10F5040CA074018E8
:100620000021054B0293019200910A460B4600F00F
:10063000FFF803B000BD0000330400000EB505490B
:100640000291002100910A460B46019100F0F0F85A
:1006500003B000BD3304000070B5CD0F4A0009039C
:100660000123090B1B0519430B4BED070024520D09
:100670009A4201DA002070BD074B34339A4203DC02
:100680009A1A00F063F802E00449511888402C439C
:10069000F1D0404270BD0000FF030000CDFBFFFF22
:1006A0004A0009030123090B1B051943094B10B527
:1006B000520D9A4201DA002010BD064B34339A42A3
:1006C00003DC9A1A00F042F810BD03495118884023
:1006D00010BD0000FF030000CDFBFFFFC20FD207DB
:1006E000400040080BD0C10D0723DB01C9184002B0
:1006F0000905400A1143C208400711437047002012
:100700000146704710B5002904DB0124E40740428C
:100710008C412146002B04DB1C460123DB0752429F
:10072000A341994200D1904210BD000010B5202A8B
:1007300004DB0146203A9140002010BD9140202367
:100740009C1A0346E3401943904010BD10B5202A7F
:1007500004DB0846203AD040002110BD0B46D340B0
:10076000D0402024A21A91400843194610BD10B56C
:10077000202A06DBCB170846203A1041C1170B434D
:1007800006E00B461341D0402024A21A91400843B2
:10079000194610BD002904DA401C490001D1400867
:1007A0004000704770B40024050C05D110240004EB
:1007B00002D1002921D01124050E01D100020834F4
:1007C000050F01D10001241D850F01D18000A41C5B
:1007D000002801DB4000641C002908D020252E1BC6
:1007E0000D46F540A14000D00121294308430106F0
:1007F0001B1B000ADB1D02D5002070BC7047DB0507
:10080000181880180029F8DA401C4900F5D170BC8E
:1008100040084000704710B5002B08DA0024401C47
:10082000614192185B411A4301D14008400010BD5C
:10083000F0B51FB482B005460C0003D0084606F0A0
:1008400025FD02E006F022FD203002460090214600
:100850002846FFF76BFF049B059A04460F46184392
:100860001143084314D0184610431BD00098402170
:100870000A1A18460599FFF769FF05460E46009AC1
:1008800005990498FFF752FF084305D0012004E0C2
:100890002046394607B0F0BD0020C11705430E437E
:1008A0002C43374300990E986305401A7905E40AF2
:1008B00000220C43FD0A0A3002D500200146E9E778
:1008C0000105101969410C9C0D9D00196941FFF744
:1008D000A2FFDFE7F8B50546480040080C4628436C
:1008E00004D06000184A400D904201DD2846F8BD52
:1008F00015493539884210DC88420BDB290D20036D
:1009000008432903014305D0E00F1049C0074118EF
:100910000020F8BD00200146F8BD161A4020821BB9
:1009200028462146FFF702FF074600912846214648
:100930003246FFF70BFF3A46009BFFF76CFF32464B
:10094000FFF7F4FEF8BD0000330400000000F03FA4
:1009500010B5002904DB0124E40740428C41214604
:10096000002B04DB1C460123DB075242A3418B42D0
:1009700000D1824210BD0000064C0125064E05E064
:10098000E36807CC2B430C3C98471034B442F7D3B0
:10099000FFF79AFBFC8100081C82000870B58C18D8
:1009A0000578401C6B075B0F01D10378401C2A11AE
:1009B00006D10278401C03E006780E70401C491CEA
:1009C0005B1EF9D12B0705D40023521E0DD40B70EA
:1009D000491CFAE70378401CCB1A921C03E01D78EF
:1009E0000D70491C5B1C521EF9D5A142D8D30020C2
:1009F00070BDF0B589B00C4607461022002168464C
:100A000006F092FF69462246084606F01BFD68463E
:100A1000007887260106684600290FDA002143186E
:100A2000425C5B785200DB091A434254491C0F298F
:100A3000F5DBC17B0246490071400DE000214318FF
:100A4000425C5B785200DB091A434254491C0F296F
:100A5000F5DBC17B02464900D173E21DF9325169D1
:100A6000102912D0017809061BD500214518435CD6
:100A70006D785B00ED092B434354491C0F29F5DBCE
:100A8000C17B03464900714019E000216218FF3222
:100A900001325378455C491C6B4053701029F5DBDB
:100AA00026E000214518435C6D785B00ED092B437F
:100AB0004354491C0F29F5DBC17B03464900D97318
:100AC000E11D55698023FA316B54002500E05D5427
:100AD00053695B1C5361102BF9D300216218FF325C
:100AE00001325378455C491C6B4053701029F5DB8B
:100AF000002162181046FF32E0300132437C527808
:100B0000491C534043741029F3DB21461022F13174
:100B100004A806F0F1FE2246394604A806F092FC2D
:100B200010220021684606F0FFFE09B0F0BD10B5A6
:100B3000044610220021F13006F0F6FEFF200021CD
:100B400015300151F022204606F0EEFE10BD0B4696
:100B500010B502461021184606F09EFC10BDF0B5F7
:100B60000446FF308BB00F4601300890E11D40690C
:100B7000FA310091103915460791002843D0102111
:100B80000E1AAE4200D316460099B2B2401839464A
:100B900006F0B2FE0898089940698019486110284B
:100BA0003AD3B54238D0002162181046FF32E03007
:100BB0000132437C5278491C534043741029F3DBC3
:100BC00007992246084606F03DFCBF19AD1B1AE006
:100BD00000202118E0314A7C3B5C401C5A404A749A
:100BE0001028F6DB102202A8079906F085FE02A95C
:100BF0002246084606F026FC102202A9079806F0B5
:100C00007BFE103D1037102DE2D8AAB2394600986D
:100C100006F072FE089845610BB0F0BDF7B52B49A0
:100C20008022497A294B511ACDB2197A5B7A8026F3
:100C3000F31A0A46DEB2871E491C0124C9B2761E89
:100C40003B0006F03AFB09060C06161A0C2906367C
:100C50003F001E4BAA4237D21D4CA05407E01B4B4D
:100C6000B24231DA1A4CA05401986054491C1972EE
:100C70001AE0164BB2421FDB26E0144EAD1EAA420C
:100C800022DA134B985401985854491CC8B202995F
:100C90001954401C307207E00C4BAA4214D20C4C81
:100CA000A054197205F0BCFD002408480121C1714F
:100CB0000AE0064BAA4207D2054CA05401986054A2
:100CC000491CEEE70220FEBD2046FEBDB800002014
:100CD000DE05002010B5040001D004F0E5FE014857
:100CE000847010BD9801002072B602484178491CFA
:100CF000417070479401002004494878401E000666
:100D0000000E487000D162B67047000094010020C8
:100D1000002070471CB504F07BFE0021C94305206C
:100D200001910090062307220021034805F05AFE96
:100D300005F09CF81CBD000028030020FFB5002032
:100D400085B000900546064601900024770007987C
:100D50000121C05BA14008422FD028190C2203902A
:100D60005043089A1258002A27D0059A002A01D128
:100D7000490722D00899411808200291085602110B
:100D800000070117069840B203F079FF002814D03D
:100D90000298407A01010E980818C068002804D013
:100DA0000198401CC0B2019007E0009A0F99039887
:100DB00088540098401CC0B20090641CE4B2102C0F
:100DC000C5D31035761CEDB2F6B2102DBDD31099F7
:100DD00001980870009809B0F0BD10B500F001F856
:100DE00010BD10B500F071F910BD10B504F05CFE37
:100DF000012000F08BF9022000F088F910BD10B539
:100E000004F052FE042000F081F9082000F07EF981
:100E100010BD10B504F048FE102000F077F9202036
:100E200000F074F9402000F071F9802000F06EF9B4
:100E3000FF20013000F06AF90120400200F066F95D
:100E40000120800200F062F90120C00200F05EF98A
:100E50000120000300F05AF90120400300F056F988
:100E60000120800300F052F90120C00300F04EF988
:100E700010BD70470649800009580648091803D07C
:100E8000C14203D000207047012070470220704704
:100E90007C810008702FFCFF7CB5069C079D0195A6
:100EA000009400F001F87CBDF0B587B00D9D0446BC
:100EB00070295ADA2170481C57D00F0701203F0FC4
:100EC0000646BE4066800E062949370F07D0360F0A
:100ED000012E0ED0022E11D0032E14D01CE00526B8
:100EE00036076660CE6A0643CE62C96AC907C90F73
:100EF00011E0204E6660CF6A022608E01E4E666052
:100F0000CF6A042603E01D4E6660CF6A0826374389
:100F1000CF62C96A31400591618800910C99A17234
:100F2000029102210391002A06D0032A06D0022A48
:100F300007D0012B0DD00DE0002000E00320019030
:100F40000FE0012B02D0019104950AE012200190DC
:100F5000FAE711200190012A03D12946204600F02A
:100F60009BF86946606800F0DDF807B0F0BD00004E
:100F7000001002400004005000080050000C005017
:100F800010B500214156702906DA491C04D0418869
:100F9000406800F089F910BD002010BDFFB504467F
:100FA0000020205685B01F46702869DA00250526E6
:100FB000002F65D060880090012915D0022915D036
:100FC00031480190A07A029002200390694660683F
:100FD00000F0A8F8079800280AD0012808D00228B5
:100FE00008D0032809D107E02848EAE72848E8E7BD
:100FF000032502E0022500E001256188FF2201327D
:10100000881A91422ED012DC10292BD008DC01293D
:1010100029D0022927D0042934D0082923D131E04E
:1010200020291FD040291DD080291CD11AE00F2172
:101030000902421A884215D009DCFF38401E11D03F
:10104000FF38FF38801E0DD00121890208E0012001
:101050000003101A06D001214903401A02D04900AA
:10106000884200D1072620780A490007800E0F50D9
:1010700000222946304600F073F9304600F066F948
:1010800009B0F0BD0626EEE7000031100000111097
:10109000000021101C0B002010B500228256702A7F
:1010A00006DA521C04D0CAB24188406800F001F947
:1010B00010BD10B5FFF764FF10BD10B5FFF76EFF50
:1010C00010BD10B5FFF7E8FF10BD70B5044600F085
:1010D000F7F80546601C00D0641C00F0F1F8401BD6
:1010E000A042FAD370BD00000021002803D104E023
:1010F0004008491CC9B20128FAD103488900405868
:10110000002800D0004770471C0B002010B5044990
:101110004A69024202D04861FFF7E6FF10BD0000B5
:1011200000040140F8B500230124A7E027469F40B2
:101130003A4070D04D68022D01D0122D14D1DD0837
:10114000AD002D1800952D6A5E07AC46F50E0F26F2
:10115000AE46AE406546B543AC460E697546AE40F8
:1011600065462E43009D2E624D68012D05D0022D4F
:1011700003D0112D01D0122D16D185680326AC465F
:101180005D00AE46AE406546B543AC46CE6875469A
:10119000AE4065462E43866046680D79BE43ED0637
:1011A000ED0F9D403543456006685F000325BD4057
:1011B000AE46AE430D79B446AE07B60FBE406546A7
:1011C0002E430660C6687546AE438D68BD40354304
:1011D000C5604D68ED0050D52B4D6E6B26436E6398
:1011E0009E082A4DB6007519AC46AD689E07360FAD
:1011F0000F27B740BD4305273F07B84201D100275D
:101200001AE0234FB84201D1012715E0214FB8421F
:1012100002D1022710E030E01F4FB84201D103276E
:101220000AE01E4FB84201D1042705E01C4FB84226
:1012300001D1052700E00627B7402F436546AF6080
:10124000184D2E684F689643FF0300D516432E6055
:101250006E684F689643BF0300D516436E60AE6854
:101260004F689643FF0200D51643AE60EE684F68A4
:101270009643BF0200D51643EE605B1C0A68154614
:10128000DD4000D052E7F8BD0010024000000140F0
:101290000004005000080050000C005000100050E6
:1012A000001C0050000401400069084000D00120EB
:1012B0007047002A01D08161704781627047000049
:1012C0000148006870470000CC0100200248016816
:1012D000491C016070470000CC01002010B508488F
:1012E00000240168402211430160204600F00AF802
:1012F000002801D0012401E000F01CF8204610BDB8
:101300000020024070B5054609487D210024C9002F
:101310000068FEF7EDFE00F0A5FF002801D00124D3
:1013200004E000222946501E00F01AF8204670BD45
:10133000D00100200448416B012211434163816BBD
:10134000020411438163704700100240C106C90EB8
:1013500001208840014908607047000000E100E07A
:1013600010B501F0EDFC10BDF8B504460078594DFC
:10137000800672D5574E0027403EB06BC00004D4A3
:10138000B06BA9050843B063012753480168C9053C
:1013900011D40168821511430160FFF791FF00909D
:1013A00005E0FFF78DFF0099401A642837D84A48B6
:1013B0000068C005F5D532680321090560680A4058
:1013C0000140914208D08103890F032904D131687B
:1013D000890301D50120F8BD2A69032109040A40C7
:1013E00022D0084090421FD0207880061CD5286962
:1013F0002A6988430121C9040A432A612A698A4368
:101400002A612861C0050FD5FFF75AFF009008E058
:10141000FFF756FF0099411A3048814201D9032055
:10142000F8BD28698005F3D561688803800F03281B
:1014300005D132680005824301400A4332602869C1
:10144000032261681204114008432861002F04D070
:10145000B16B012000078143B1632078C00705D03C
:10146000E868A168800880000843E8602078800769
:1014700005D5E8680C218843E1680843E8602078D6
:10148000400706D5E868032189028843216908439B
:10149000E8602078000706D5E8680321090388433F
:1014A00061690843E8602088C00506D5E868032123
:1014B00009048843A1690843E8602078000606D53E
:1014C000E868032189048843E1690843E860002053
:1014D000F8BD00004010024000700040881300007A
:1014E000F8B50E4605007DD053480068C007C00F10
:1014F000B0420AD2504801684908490031430160AE
:101500000068C007C00FB04271D128784B4C8007EB
:1015100005D5E068F0218843A9680843E060287891
:10152000C00752D06868022817D0032818D0216855
:10153000012818D08905002959DAE168890889004D
:101540000143E160FFF7BCFE69680746022912D03B
:1015500003291CD0012926D033E021688903EAE75A
:1015600021688901E7E74907E5E7FFF7A9FEC11B05
:101570003348814223D8E0680007800F0228F4D165
:1015800023E0FFF79DFEC11B2D48814217D8E0687C
:101590000007800F0328F4D117E0FFF791FEC11B6D
:1015A000274881420BD8E0680007800F0128F4D15A
:1015B0000BE0FFF785FEC11B2148814201D90320C2
:1015C000F8BDE0680007800FF3D11B480168C90728
:1015D000C90FB1420DD90168490849003143016082
:1015E000006800E003E0C007C00FB04201D0012056
:1015F000F8BD2878400706D5E0680721090288432E
:10160000E9680843E0602878000707D5E06807210B
:10161000C90288432969C9000843E06000F036F830
:10162000E168084A0906090F515CC840064908608C
:101630000020FFF767FEF8BD0020024000100240C6
:1016400088130000D8810008D00100200448054913
:101650000068C968044A4905490F515CC840704791
:10166000D001002000100240F18100080448054923
:101670000068C968044A8904490F515CC840704732
:10168000D001002000100240F181000810B5184A76
:10169000D1680C20084004280BD0082810D00C2852
:1016A00010D050680004410F0120C003491C88403D
:1016B00010BD1068C00601D50E4810BD0E4810BD03
:1016C0000E4810BD88020E4B000F185C0902D3684B
:1016D000890F491CDB0301D5084A05E01268D206D0
:1016E00001D5044A00E0044A5043FEF701FD10BD55
:1016F0000010024000093D000024F40000127A00AE
:10170000E8810008FEB505007ED0FE4CE7680C209D
:10171000E66807400120000406402878C00747D04B
:10172000082F05D00C2F0AD101200004864206D1D3
:10173000206880033CD568680028E5D038E00120A7
:1017400069680004814203D121680143216011E0EE
:10175000052301221B0492049942216802D11143FE
:101760002160F1E7814321602168014000912068F8
:1017700090432060686800280DD0FFF7A1FD00901D
:1017800005E0FFF79DFD0099401A64287ED8206887
:101790008003F6D50CE0FFF793FD009005E0FFF71E
:1017A0008FFD0099401A6428F0D820688003F6D491
:1017B000287880075CD5E868810604D52268202156
:1017C0000A43226088430923042F0DD00C2F01D136
:1017D000002E09D000283BD02168994301432160A5
:1017E000FFF76EFD064627E02168490701D500286E
:1017F0008AD061681F22120291432A6912021143A2
:1018000061602168994300E08CE101432160FFF7AA
:101810003DFFE16809060A0FBB49895CC840BB4926
:1018200008600020FFF76EFD002873D120E0FFF76D
:1018300047FD801B0228A9D820684007F7D56068BB
:101840001F210902884329690902084360600FE0EB
:101850002068400840002060FFF732FD064604E0A3
:10186000FFF72EFD801B022890D820684007F7D490
:101870002878C00660D5002F0DD0A86900284AD06E
:101880002068FF2101310843206000E0C4E0FFF739
:1018900017FD06462CE02068800502D5A8690028BF
:1018A000A6D06068072149038843296A084360601D
:1018B0006068297F0002000A090608436060286A00
:1018C000410B0120C003491C8840E16809060A0F4A
:1018D0008D49895CC8408D4908600020FFF712FDE2
:1018E000002817D128E0FFF7EBFC801B0228A2D8C4
:1018F00020688005F7D56068072149038843296A75
:10190000084360606068297F0002000A09060843F6
:10191000606011E0E1E02168FF2001308143216037
:10192000FFF7CEFC064604E0FFF7CAFC801B022846
:1019300072D820688005F7D42878754E000724D522
:1019400068690028306910D0012108433061FFF731
:10195000B7FC009005E0FFF7B3FC0099401A02289D
:101960005AD830698007F6D50FE040084000306152
:10197000FFF7A6FC009005E0FFF7A2FC0099401AD3
:10198000022849D830698007F6D42878400765D501
:1019900000200290A06BC00006D4A06B01210907B3
:1019A0000843A063012002905A480168C90511D478
:1019B0000168821511430160FFF782FC009005E089
:1019C000FFF77EFC0099401A642825D8514800682A
:1019D000C005F5D5FF20AA680130824203D13169E4
:1019E0000143316111E001218902002A07D005235A
:1019F0001B029A4203D132690A433261EFE732692E
:101A000082433261306988433061A86800280FD072
:101A1000FFF756FC009007E05EE0FFF751FC0099ED
:101A2000411A3D48814257D830698005F5D50DE00F
:101A3000FFF746FC009006E0FFF742FC0099411AD0
:101A40003548814248D830698005F5D4029800288D
:101A500004D0A16B012000078143A163686A0028BC
:101A600062D00C2F3ED0012636060228206805D011
:101A7000B0432060FFF724FC05462FE0B043206010
:101A8000FFF71EFC074604E0FFF71AFCC01B022804
:101A900022D820688001F7D4E96AA86AE26808437E
:101AA000296BFD231B049A4311430843E06020681F
:101AB00030432060FFF704FC054604E0FFF700FC1C
:101AC000401B022808D820688001F7D52CE0FFF7DA
:101AD000F7FB401B022801D90320FEBD20688001CE
:101AE000F5D421E0E06801210904AA6A014091428D
:101AF00018D10F218904EA6A0140914212D10321D1
:101B000089050BE000100240D8810008D0010020B8
:101B10004010024000700040881300000840296B0C
:101B2000884201D00120FEBD0020FEBD704730B5C7
:101B3000014620310A78012A15D001220A700223B9
:101B40004B700468CA2363620468532363620368AA
:101B50009C6820252C439C600068FF2343624A70E8
:101B60000020087030BD022030BD704770B50446BB
:101B7000006881688025C90400290BDAC068C005A7
:101B800008D52046FFF7F1FF2168C8682840FF38D4
:101B90008238C8602068816889040BD5C0688005D8
:101BA00008D52046FFF7C2FF2068C168054A2940D2
:101BB0008918C16001200449400448610120203493
:101BC000607070BD7FFDFFFF00040140F8B5054661
:101BD00004462035287801281DD0012028700220D5
:101BE00068702268CA205062226853205062FF2029
:101BF00001300026FF2781421CD121688A68824378
:101C00008A60206881680122120391438160FFF796
:101C100057FB009009E00220F8BDFFF751FB009947
:101C2000411A7D20C00081421BD82068C068C007CF
:101C3000F3D020E020688168012252029143816044
:101C400020688168120191438160FFF739FB0090A1
:101C50000DE0FFF735FB0099411A7D20C00081425D
:101C600005D920684762032068702E70F8BD20688F
:101C7000C0688007EDD520684762012068702E702B
:101C80000020F8BDF0B50C46FF219C4601312546E9
:101C900040268F051D4B20358A4204D161620168C0
:101CA000C869496C05E00121490261620168086A5E
:101CB000896C8202920E22704204520E62704206B9
:101CC000520EA270020C49043240490CE27061606D
:101CD0008100890E2970014639401840E161606138
:101CE000604600280FD1207802F084F820706078D8
:101CF00002F080F86070A07802F07CF8A07028787C
:101D000002F078F828700020F0BD0000808080800C
:101D100010B500680B464068C021C943014000026D
:101D2000000ECC04D870E40E5C708C06A40E09047E
:101D3000490F9C701970002A0AD102F05BF8D87024
:101D4000587802F057F85870987802F053F8987065
:101D5000002010BD30B50B460168896A59600168E2
:101D600009694904490C9960006804680F482146D4
:101D7000014088024D04800E18706D0E49065D709A
:101D8000490E99706102490E40242140D970002A01
:101D90000AD102F02FF81870587802F02BF858701A
:101DA000987802F027F89870002030BD7F7F7F0080
:101DB000F8B5040050D0254620356878002803D1B6
:101DC0002870204600F052F8022068702168CA206E
:101DD0004862216853204862204602F01FF8FF261F
:101DE00004270028206802D046626F7034E08168C2
:101DF0001D4A11408160216888686268A3691043A8
:101E000022691A43104388602168E06808612068ED
:101E1000016922891204114301612068C16880228E
:101E20009143C1602068C16C89088900C164E1697F
:101E3000606901432068C26C1143C16420688068F6
:101E400080060BD4204600F0B1F9002806D02068A7
:101E500046626F70002028700120F8BD206846623D
:101E6000012068700020F8BDBFFF8FFF70470000A1
:101E7000FEB506460446203630780B4601283ED093
:101E800001203070022070701846203000902068C9
:101E900000278068002A34D0400600D4DF7019780B
:101EA0009D7809040D435978DA7809021204114328
:101EB0000D430099D869097809060D43054358690F
:101EC000996905435868084300902168CA20486210
:101ED000216853204862FF205A6A013080218242E3
:101EE00045D122689368834393602068C2680A40A2
:101EF000FF3A823AC260FFF7E3F9019024E0022042
:101F0000FEBD400600D4DF70187801F07BFF0504A9
:101F1000587801F077FF00020543987801F072FFCE
:101F20000543D878000405430098007801F06AFF63
:101F300000060543D869C1E7FFF7C2F90199411AC4
:101F40007D20C00081422AD82068C068C007F3D035
:101F50002068C56121680098486420688168FF2274
:101F600001321143816020688168120130E02068ED
:101F7000826801235B029A4382602068C2680A403B
:101F80001D495118C160FFF79BF901900EE0FFF762
:101F900097F90199411A7D20C000814206D9216834
:101FA000FF204862032070703770FEBD2068C06853
:101FB0008007ECD520680562216800988864206855
:101FC00081680122520211438160206881681201F8
:101FD0001143816009480268012149040A430260F3
:101FE00082680A4382602168FF2048620120707085
:101FF00037700020FEBD00007FFDFFFF00040140A0
:10200000F8B505460446203528780B4601280FD040
:102010000120287002206870002A0BD0D8789E78A2
:10202000000406435878097800024903084317E082
:102030000220F8BD5878C10603D5EF2108400A30C8
:102040005870D87801F0DEFE0604587801F0DAFE08
:1020500000020643987801F0D5FE06431878400345
:1020600006432168CA2048622168532048622046FE
:1020700001F0D4FE0027002811D111480640206845
:1020800046602068C16880229143C16020688068F2
:1020900080060CD4204600F089F8002807D021687B
:1020A000FF204862042068702F700120F8BD21686D
:1020B000FF204862012068702F700020F8BD0000EA
:1020C0003FFFFF00F8B506460446203630780D463F
:1020D000012822D001203070022070702068002773
:1020E0008068002A1BD0400600D4EF702978A878B9
:1020F000090408436978EA78090212041143084385
:1021000000902168CA204862216853204862204616
:1021100001F084FE002837D116E00220F8BD400609
:1021200000D4EF70287801F06DFE0304687801F0A8
:1021300069FE00020343A87801F064FE0343E878D7
:10214000000403430093DCE7174900980840216826
:1021500008602068816801229204914381602969A6
:10216000E868084321688A68104388602068C1686D
:1021700080229143C1602068806880060CD420468C
:1021800000F014F8002807D02168FF2048620420DE
:10219000707037700120F8BD2168FF20486201206F
:1021A000707037700020F8BD7F7F7F0070B50446E7
:1021B0000068C168A0229143C160FFF781F87D26C5
:1021C0000546F60006E0FFF77BF8401BB04201D958
:1021D000032070BD2068C0688006F4D5002070BD63
:1021E00070B5040007D0002625464035A662687CFD
:1021F000002802D005E0012070BD2E74204600F0BA
:102200002FF8022068742068016840229143016021
:10221000A168606822690843E16811430843616965
:1022200001220843A169520211400843E1690843B1
:10223000216A0843A16A084321680860A069042153
:10224000000C0840616A0843216848602068C16941
:1022500092009143C161666501206874002070BDE1
:1022600070470000094910B5401E884201D901207D
:1022700010BD074C60610321081F00F061FD0020C4
:10228000A06107202061002010BD0000FFFFFF00BB
:1022900000E000E010B5040003D0606F002802D019
:1022A00007E0012010BD002170200155204600F0FC
:1022B00027F8242060672068016849084900016008
:1022C000204604F013FE0128ECD0606A002802D0FA
:1022D000204604F075FD206841680922D20291432E
:1022E0004160206881682A229143816020680168EA
:1022F000012211430160204604F0C8FD10BD00001A
:1023000010B586B0044614216846FDF764FF1149F4
:10231000206888421BD11048816B0122520411436E
:102320008163C16A01221143C162C06A69461040DB
:1023300005900C20009002200190002002900320C4
:1023400003900420049005200007FEF7EBFE06B082
:1023500010BD00000044004000100240FFB50446DC
:10236000406F83B017460D4620285CD1002D0AD05F
:10237000002F08D0A168C001814207D12069002840
:1023800004D1E80702D0012007B0F0BD204660303C
:102390000290007C012846D002980121017400209F
:1023A000E06721206067FEF78BFF264640360190EC
:1023B000378277820120A1680003814202D120691F
:1023C000002802D02F46002511E000270FE0002250
:1023D0008021204604F0A8FE002815D1002F15D03A
:1023E0002168387888627F1C708A401E7082708AEB
:1023F000019B002806980090E9D100224021204648
:1024000004F092FE002808D00320BDE72888216848
:10241000C005C00D8862AD1CE6E720206067029908
:1024200000200874B0E70220AEE7FEE7F8B51746D3
:1024300005460A461948069C089E0799447183710F
:102440001C0AC4711C0C04721B0E437281720B0AAD
:10245000C3720B0C0373090E4173D4B2C4731048DA
:10246000FEF765FB39460E48FEF771FB10220B495B
:102470000B48FEF774FB224629460948FEF76FFB1E
:102480000749C81FFD38FEF7B4FA064C601CFDF77B
:10249000ADFE2178000208433060F8BD2001002025
:1024A0004409002040080020F8B50F4605001646F4
:1024B0007ED028680028FBD068680028F8D0A8687B
:1024C0000028F5D0E8680028F2D0104603F089F81B
:1024D00000286ED0754C0021E765A5652246E6739D
:1024E0001932117021746163A174216561650B213A
:1024F0006A4611703046694603F062F8002800D041
:102500000120E0740821684601706946E07B03F011
:1025100057F8674D05212870684601706946E07BD1
:1025200003F04EF868700C21684601706946E07B44
:1025300003F046F8E8600D21684601706946E07BCB
:1025400003F03EF828610E21684601706946E07B81
:1025500003F036F868610F21684601706946E07B38
:1025600003F02EF8A8611021684601706946E07BEF
:1025700003F026F8E8611321684601706946E07BA4
:1025800003F01EF82E462036707014216846017044
:102590006946E07B03F014F8686215216846017013
:1025A0006946E07B03F00CF830721A21684601E0BE
:1025B00077E078E001706946E07B03F001F8307362
:1025C0001B21684601706946E07B02F0F9FF7073D9
:1025D0001C21684601706946E07B02F0F1FF286328
:1025E0001D21684601706946E07B02F0E9FF6863DF
:1025F0000021E07B02F0EEFF012737700A2206215E
:102600006A6028462972383842600172E968C16000
:102610002969016169694161A9698161E969C161EA
:102620002030077003F050F828462249383004F073
:10263000C9FA7D212846C900383004F041FB2846FC
:102640001D49683004F0BEFA28461C497C3004F06D
:10265000B9FA28461A49903004F0B4FA28461949C4
:10266000CC3004F0AFFA04F0A5FA206328461649EE
:102670004C3001601549816015490161154941607F
:102680001549164DC160296888476869804705F07B
:1026900009FB6774A96D38468847E86A80470020BF
:1026A000F8BD0320F8BD0A20F8BD0000B8000020E6
:1026B00018070020E52D0008ED3700082D37000829
:1026C0008D370008852D0008053600082D300008DC
:1026D00005350008F136000885350008347D00080E
:1026E000F8B504461D4617460E460D48FEF71FFA7C
:1026F00039460B48FEF72BFAF2B221460848FEF79E
:102700002EFA0749C81FFD38FEF773F9054C601C07
:10271000FDF76CFD2178000208432860F8BD000039
:102720004409002040080020FFB585B00F4604464C
:1027300007ADF02200211D480E9E05F0F5F81B4A5A
:102740001021204604F0A8FE10220021684605F062
:10275000EBF8012168460170062239466C46401CA0
:1027600005F0CAF802222946E01D05F0C5F80F4A17
:102770006846089904F066FE10220021684605F0BC
:10278000D3F802216846017006223946601C05F024
:10279000B3F802222946E01D05F0AEF8034A31469F
:1027A000684604F04FFE09B0F0BD0000500800205C
:1027B000F8B517460E4605461C46F02200210B4888
:1027C00005F0B2F8094A1021384604F065FE074AC0
:1027D0002146284604F036FE102E06D32146284610
:1027E000024A1031103004F02DFEF8BD50080020D0
:1027F000F0B5002689B00446002806D08B4FB88E6D
:10280000C00704D0012009B0F0BD0320FBE7884DCC
:10281000864822782946C07B20310191497B1300EC
:1028200004F04BFD1F112124272A2D333C42F14592
:102830006C827E8D94979A9DA1A4B3D3C4E2E5F1F6
:10284000E8F2F8FBF10020793874002804D0012860
:1028500005D0022803D103E07648C06A8047E2E051
:102860000020787139E02079F870DCE02079387147
:10287000D9E06068B864D6E06068F864D3E0616865
:1028800000296FD010226C4805E06168002969D0EA
:1028900069481022103005F02FF8C4E0207965490E
:1028A0007874896D8847BEE02079B874BBE0237ADC
:1028B0006A4613755175062205A902F0F9FE002833
:1028C00050D05B48A2682038616882644164387CDB
:1028D000022812D1F87800280FD05648C06A8047E5
:1028E00053480821F030009001982A7A41566B68CD
:1028F000F87B02F0CCF900F08BFF94E0237A6A4673
:1029000013755175062205A902F0D2FE002869D080
:102910004748A368203862688021C2670B5082E074
:1029200061680391012102E06168039100216A4618
:10293000117403A901F09BFF002853D073E02079A4
:10294000411E0E294ED8019908706CE06068E8605D
:1029500069E06068286166E06068686163E06068FB
:10296000A86160E03EE06068E8615CE021796A4669
:102970001175052205A902F09BFE002832D0684699
:10298000017D2B48383041704DE0227969460A7547
:1029900001990A7B69468A75042205A902F088FE1E
:1029A00000281FD06846007D68703CE021796A46A7
:1029B0001175082205A902F07BFE002812D0684696
:1029C000017D1B48383001702DE021796A46117570
:1029D000072205A902F06CFE002803D06846007D9E
:1029E000287020E003261EE0606878621BE06068C3
:1029F000B86218E00E48616838304160696012E0E2
:102A00000BE007E000E00DE0094821793830017261
:102A1000297208E06068686305E00548616838303D
:102A2000416300E002263046EDE60000B8000020D9
:102A3000E0060020347D0008C0030020FEB50446F7
:102A400002200090002C51D03848406B002818D14B
:102A50000C220021364804F067FF354E01207070CB
:102A6000324D207808271935002806D001283FD09C
:102A7000022848D0032830D14DE02C48808EC00673
:102A800001D50120FEBD606800282FD0A068002875
:102A90002CD0E068002829D002F016FE28783843B0
:102AA00028702078307021486168C163A168016492
:102AB000E168416410216156C07B01F0B4FE1D49FC
:102AC000487000206946087103460246014601A885
:102AD00003F03EFE0090002806D014490020487103
:102AE0002878F721084028700098FEBD0320FEBD1D
:102AF0002878002238432870207830701146022050
:102B0000FEF78CF8E6E73070287838432870A08804
:102B100003F092FEDEE73070287838432870227B7D
:102B2000A088A16803F0B2FED4E70000B80000203E
:102B300024080020E0060020FEB508AF70CF6F46E5
:102B400070C700F001F8FEBDFFB50D46002681B04C
:102B50001F460124F0223146294804F0E5FE284AA8
:102B60001021039804F098FC26480A994171877156
:102B7000390AC171390C0172390E41720B99817297
:102B80000B991F4F090AC1720B99090C01730B991C
:102B9000090E4173203F18E01A48194AC473641C97
:102BA0001146A4B2203904F04DFC00203118019ADE
:102BB0003B5C525C401C5A400C9B80B25A5410281B
:102BC000F4D3103D1036ADB2F6B2102DE4D2002D84
:102BD00013D00B4A0B481146C473203904F032FC61
:102BE000002008E0019A3118525C3B5C5A400C9B73
:102BF000401C5A5480B2A842F4D305B0F0BD000086
:102C0000500800203001002030B587B014216846FC
:102C1000FDF7E1FA1848C26A04210A43C262C26A97
:102C20000A400592C16A01221143C162C16A114082
:102C30000591C26A02210A43C262C06A03240840A5
:102C400005900320800300256A4631C269460B487F
:102C5000FEF768FA0A486A4631C20520694600074D
:102C6000FEF760FAF3206A4631C269460548FEF76E
:102C700059FA07B030BD00000010024000080050B3
:102C8000F37F00000004005010B50C480A490160B1
:102C9000E1214902416000218160C16001618161DF
:102CA000C1610C22016242614162FFF7F3FA002820
:102CB00001D0FEF7DEF810BD00440040800C00207B
:102CC0007047704710B50178002905D14078002879
:102CD00003D003A004F0CAFA10BD0DA0FAE700006B
:102CE0004A6F696E20776173206E6F74207375630D
:102CF0006365737366756C2E2054727920746F202F
:102D00006A6F696E20616761696E0D0A00000000DC
:102D1000537461747573206973204F4B2C206E6F50
:102D2000646520686173206A6F696E6564207468E9
:102D300065206E6574776F726B0D0A00704770477F
:102D40008307FF22DB0E9A408907090E994000286D
:102D50000BDA0007000F0838830808489B00181892
:102D6000C36993430B43C3617047830804489B00C6
:102D70001B181868904308431860704700ED00E086
:102D800000E400E010B50B4803F0D2FF0A48417997
:102D9000002905D001218173416B042291434163D5
:102DA000007C022805D10448202219300178114303
:102DB000017010BDE4070020B800002010B503A08A
:102DC00004F054FA064803F083FF10BD4F6E4C65C3
:102DD000643254696D65724576656E740D0A000043
:102DE0006C0C0020F8B500278D4803F0A1FF8D4D35
:102DF0008D4C287881066DD5616B4A0604D540223A
:102E00009143490849006163854A0107D43200268D
:102E1000002901DBC10711D08149C0314B78022B59
:102E200002D05378022B09D1636B5B085B006363AC
:102E30002672637B4B710E7101278E606179394375
:102E4000774F503F00292BD1010702D4C10703D18E
:102E500026E01178002906D03978A27A914208D963
:102E600081070CD417E0507800280FD16662A67253
:102E70000CE0800703D42672E06A401CE062A67270
:102E80006078002802D1606A401C6062606B400874
:102E90004000606304E0DF210840287000F0A6FCD9
:102EA0002878800717D55E4AC0321079012803D0F0
:102EB000607B217B88420ED9A673667160780028FA
:102EC00002D1606A401C6062607B5071606B400898
:102ED0004000606350E0A07B00284DD0A08EC0066B
:102EE0004AD4A673607B217B884232D2082830D82E
:102EF000401C6073C0070DD01E2168460170397BED
:102F0000474F8170703F797841706946E07B02F0ED
:102F100057FB7870012003F083FB002814D0404851
:102F20000921C03041702672616B49084900616314
:102F300066710671617B41713949703949788170D8
:102F40006078002815D017E02878DF210840287025
:102F500012E00121E07B02F03DFB606B4008400085
:102F600060632F4826726671C0300671617B4171C3
:102F7000E6E7606A401C6062606B810702D502214F
:102F800088436063002811D07D21C900244803F0E4
:102F900097FE234803F09CFE2878810734D5FD2155
:102FA00008402870207C022820D021E02878C10722
:102FB00007D0400840002870A06D01681848C03054
:102FC00088472878010707D5F72108402870A06DA9
:102FD00081681348D4308847607A002801D003F014
:102FE0001FFC2878DF2108402870D5E700F010FC8E
:102FF0002878400704D4A06D41680948A830884764
:103000002878FB2108402870C0B2C10607D5EF21FF
:1030100008402870A06DC1680248801E8847F8BD2E
:1030200050070020D1000020B8000020FFB595B067
:103030000C4606460021FB4808910F901030129173
:103040000D90F9480B91119101711838C281189AAD
:103050000274F64A0D46127E4274C170817041714D
:10306000816001734173817441610170F048C06AED
:103070008047ED48683803F05BFE30786946087099
:103080004109601E0290201FEA4F13911090012900
:1030900017D003297ED005297CD007297BD039465B
:1030A0000120F831487000F029FDE048DE4A4179FE
:1030B000037C447B1279007B00296DD0002A6CD1FF
:1030C000FEE1DA48C178002904D0D7490120183937
:1030D0004870B3E0D5480299D74D426C89B26B1C59
:1030E000701CFFF765FB684600782870109808ABE5
:1030F00081B2CE48426C2846FFF7F2FA28192038F0
:10310000417F027F09021143827FC07F12040A437C
:10311000000608991043884247D1C248C34E103078
:103120000090C04BB28B691C706CFFF7FDFA687998
:10313000297900020843A97909040143B164287A76
:10314000E97900020843697A09040143A87A000674
:103150000843F064E87A4106490F00077970000FD0
:103160003872287B0107B548090F016101D101219F
:1031700001617D22D2005143016189184161AE484D
:10318000113C0D3004906846047504A9F07B01F0F1
:1031900053FB03E00EE081E18FE193E1A2490020BF
:1031A000143148700120F0707FE79F4807211430E8
:1031B00041707AE7797B684681739B489B4F18384A
:1031C00001796846417309210173B87C002802D057
:1031D0000A206946087303A9F87B02F0F1F9214639
:1031E0000D3909B2002900DA0021814200D96CE7CB
:1031F000B078717800020843F1780904014330790E
:1032000002060A4389490692C96C05208A42874909
:1032100018D00D6A0CE02A6806998A4207D101216C
:103220001291291D0F9110310D916F6A0BE0AD6A5B
:10323000002DF0D10B217C481838417000F05EFC65
:1032400019B0F0BD8F6A325C69460A70401C0A9260
:10325000335C401C305C01021007000F08300990FD
:10326000301919432038037F0B9A1343427F12020F
:103270001A43837FC07F1B041343000618430B903F
:10328000C81B81B20122D20308A80E91914212D22A
:103290007F1801210197029000911098069B81B23E
:1032A00030460F9AFFF7C2F808990B9888421AD156
:1032B0000120119017E009B27A1801210904511870
:1032C00014910191029010980122009281B230462F
:1032D000069B0F9AFFF7AAF808990B98884202D12B
:1032E0000120149F11901120694608734F4803A9CB
:1032F000C07B02F065F90E99884205D84A480A2138
:1033000018384170476199E7119800287AD04649EA
:10331000002018394870129A8A700A9AD206D20F81
:103320004A71886008734F611831404A4870D06212
:103330005072129800280CD00846022218380270E9
:103340006A6ABA4203D1002A01D0082175E76F6288
:1033500023E0139805280DD03448334A00238371A5
:10336000183A1370806AB84215D1002813D008208B
:10337000507063E72D482C4B01228271183B1A7064
:10338000806AB84207D1002805D0284804231930A4
:1033900002781A430270254887620878012832D0E3
:1033A000224A002010720998201A001F002863DDAD
:1033B000099D09986D1C621B121F1B4C305CD2B218
:1033C000183C0E92E07000280A9839D0000707D008
:1033D00018980821C3B2681EC2B2304600F0ACFB98
:1033E000154801210197009102907019069B0D9AD2
:1033F0000E99FFF7A1FB1048A0600E9820730120E2
:10340000607343E048E00A988006CCD5074A002064
:1034100010720A98044A8006C00F0871183A907416
:10342000C1E70000C003002010080020B800002001
:10343000347D000800070020DF040020E0060020A3
:10344000000708D02C48042302781A430270002099
:103450000871A0741AE00121284800910197029098
:103460007019069B0F9A0E99FFF766FB18980021BA
:10347000C3B222480E9A07E00A98000706D01898AF
:103480000821C3B23046099A00F056FB1A480222BE
:1034900001781143017008E60C21CCE6711C22462C
:1034A000164804F029FA16480321017000214170E2
:1034B0001249816002990173E8E7022B02D005E00E
:1034C000844203D90E48143803F032FC0C481438F7
:1034D000007A002800D0B3E6074820220178114383
:1034E000017007480121A83803F0EAFB0448A83816
:1034F00003F0EEFBA4E60000D1000020DF04002072
:10350000F807002070B51C4C207C022802D01B4814
:10351000C06A80471A48184D227E01461935202678
:1035200014316379002A0BD00622002B00D04270A0
:103530004A70207C02281BD028783043287070BD48
:103540000522002B00D042704A70207C02280FD048
:10355000206D03F033FB616E884206D3084868385B
:1035600003F0E6FB287830432870207C0228E6D15F
:1035700000F04EF970BD0000B8000020347D000856
:103580001008002070B51C4C207C022802D01B487B
:10359000C06A80471A48184D227E014619352026F8
:1035A00014316379002A0BD00422002B00D0427022
:1035B0004A70207C02281BD028783043287070BDC8
:1035C0000322002B00D042704A70207C02280FD0CA
:1035D000206D03F0F3FA616E884206D3084868381C
:1035E00003F0A6FB287830432870207C0228E6D11F
:1035F00000F00EF970BD0000B8000020347D000816
:1036000010080020FEB503F0D5FA364C0646207CA3
:10361000022803D03448C06A804701E000F0F8F87F
:10362000304DA0781935002700282AD02F48216E68
:1036300003F046FB2D4803F04BFB207C02280ED004
:103640002A48616E143003F03BFB2848143003F025
:103650003FFB207C022802D06079002820D0122075
:103660006946087202A9E07B01F0AAFF616E411869
:103670001E48503003F024FB1C48503003F028FB58
:103680000EE01A4804217C304770143041702878CD
:10369000002801D101202870C0B2202108432870E1
:1036A0002878000704D5114890300078002815D0FC
:1036B000A775207D607569460870E07848700196AE
:1036C000E07B01F0D1FF26656079002805D107482D
:1036D0007C304770A07A401CA072FEBD0120A0750E
:1036E000E7E70000B8000020347D000894070020C0
:1036F00010B50B48007C022803D00A48C06A8047F6
:1037000001E000F085F80849022048701431487043
:1037100003482022193001781143017010BD0000C8
:10372000B8000020347D00081008002070B514484F
:1037300003F0FEFA134D0020114C2876297D283421
:1037400021702146BC394A78E270497B2174A97CFA
:103750006174A074E074287C022802D10A48006BCE
:103760008047074AE87B68321146403901F068FF1C
:103770000348B438C168A07C02F01AFA70BD00009A
:1037800094070020B8000020347D0008F8B51548E3
:1037900003F0CEFA134C144D2834287D27462070B0
:1037A000F03F786A60602046D038407B2074A87C67
:1037B00060740126E674287C022802D00020A074E0
:1037C00000E0A674074AE87B543211462C3901F018
:1037D00037FF002804D0A07CF96802F0E9F92E76C2
:1037E000F8BD0000A8070020B800002010B506486A
:1037F00003F09EFA05481022416B9143416301207A
:1038000002F00EFF10BD000080070020B80000206D
:1038100010B5FFF7BBFF02490220087610BD00007B
:10382000B8000020F0B5064600242046002E01D046
:10383000002A1ED10020F0BD355DAF1E3B0003F015
:103840003CFD091614160612140E16061600641C0A
:103850001554E4B2401CC0B2335D135400E015545B
:10386000401CC0B203E0A41C00E0641CE4B2641C71
:10387000E4B28C42E0D3F0BD70470000F0B50C46D6
:1038800087B08446002198480C9D069141831E1EF6
:103890001746417100D10025EAB202706146934D8E
:1038A000097829700121009161460978490908D0F9
:1038B00002293FD004293BD007297DD0022007B040
:1038C000F0BD009904464183681C0822216C04F075
:1038D0001EF8608B0822083080B260832818E16BE4
:1038E00004F015F8608B0830608381484069804798
:1038F0000146A083608B06AB2954401C80B2090AA4
:103900002954401C6083C1B27848626CFEF7E8FE1F
:10391000608B06992954401C80B20A0A2A54401C24
:1039200080B20A0C2A54401C80B2090E2954D7E0F8
:1039300001214171C178002969D0012269460A73C9
:1039400021786948CA0969464A736A4AC06A04907C
:10395000507808751078487510462030007B8875BF
:10396000614813462C3000902C3803A9C07B521CB0
:1039700000F04AFF81012078BF22104008435A49D5
:1039800020708979002905D0574A002191712021A2
:10399000084320705448C16C54480A0A4170827030
:1039A0000A0CC270090E0171217841714E49898C4F
:1039B0008171090AC17100E088E04B49FF30097A42
:1039C000FF304018484908254A7A4A49823903F0AD
:1039D00093FF4548017A407A0818C1B24248002E48
:1039E00001721FD00278002A1CD0C279002A22D08E
:1039F0000F291DD820783D4A030940181B010007F4
:103A0000000F03432370537100203B4C07E0072055
:103A100055E7235C53556D1C401CEDB280B28842C3
:103A2000F7D308E03048002905D0C279002A02D037
:103A3000314E017000272C4C00202F4AE07180325B
:103A40002D48FFF7EFFE6072002801D00120E071E1
:103A5000002E14D02178002911D0244847556D1C20
:103A6000EDB2002F27D0636A002240190092019323
:103A700002901E4AE36C103A3046FFF765F8207852
:103A800006AB2918618300206E46626A0DC6174A8C
:103A90001648203AE36CFEF7C9FC144A618B06987D
:103AA0005054030A52185370030C000E9370D070D8
:103AB000091D618316E000222272636A4019009298
:103AC0000A4A01930290203AE36CD5E7002B09D013
:103AD0000446002A06D0681C314603F00DFF20780A
:103AE000401C60830020EAE6B8000020E0030020CC
:103AF000347D0008E0060020DE05002010B50C48EB
:103B00004022416B114341634079002801D0FFF707
:103B100039F9074922221931087810430870012128
:103B2000044803F0CDF8034803F0D2F810BD0000BC
:103B3000B800002050070020FFB505468BB0A9480B
:103B400016460C46099026E1285D641C801EE4B2EE
:103B5000030003F0B2FB0906115E6AA1B0D8F1EFD1
:103B6000EE00A14900204870285D0872641CE0B294
:103B70002A5C4A72401C4AE000206946087708A97E
:103B800008706946087208732819401E0490301B9B
:103B9000401C08759548934F02798A750999203F12
:103BA0000A7B69464A757A78CA753A780A7609991D
:103BB00008AB0A7869464A7603AA02A901920091E5
:103BC00007AA04A9C07B01F012FD0090C043400782
:103BD00009D16846007F787008A800783870684678
:103BE000017A09980170002706E00022032000995D
:103BF000FDF714F87F1CFFB268460521007BFCF737
:103C000077FAB842F1D86846007B2018401EC4B24B
:103C1000C1E0295D7548641C0122C1728A40C283DB
:103C20000022E4B211460420B3E0285D4006410FB3
:103C300068464170285D641C0107090F68460170E1
:103C4000E0B2295C401CC0B201912A5C401C120207
:103C50001143C0B201912A5C401C12041143C4B24A
:103C6000084664214843019060486946C07B01F0E2
:103C7000F2FC0146C84340070BD168460278099818
:103C800002725848019A2038426268464278099880
:103C90004270002205207CE05448FF21C06D0028BE
:103CA00004D00068002801D0804701460E988206A3
:103CB000920E06206DE0285D69460874641CE0B22F
:103CC0000391295C401CC0B200912A5C401C120286
:103CD0001143C0B200912A5C401C120411436422BB
:103CE0005143009100210191C0B22A5C401C6946F9
:103CF000C4B20A723D4803A9C07B01F089FC0022CE
:103D00000146072045E0285D641C0007000FE4B26F
:103D1000002800D101207D21C900484331497D227E
:103D20002039D2000861801800224861114608201D
:103D30002FE033E034E0FFE7285D00216A46641C91
:103D400011705170E4B2810601D501215170C10694
:103D500001D5012111700007000F90702348114612
:103D6000C07B01F09CFC401C15D068460178099886
:103D700001736846417809984173684680781C4908
:103D8000085CFCF73FFC1749002220390863114604
:103D90000920FCF743FFB44200D2D5E60FB0F0BDD6
:103DA000285D69460870641CE0B2295C401CC0B202
:103DB00001912A5C401C12021143C0B201912A5C9D
:103DC000401C12041143C4B20846642148430190C8
:103DD00006486946C07B00F067FF002201460A20C2
:103DE000D7E700000007002024080020B8000020CA
:103DF0005481000801090A2200075143000F4018AE
:103E0000C0B270470022014602E00A39C9B2521C12
:103E10000A29FAD21007000E0843704770B504460D
:103E20000068C168490613D40021C943C160FDF789
:103E300047FA7D260546F60006E0FDF741FA401BED
:103E4000B04201D9032070BD2068C0684006F4D597
:103E5000002070BD30B597B01748FDF787FEFF25ED
:103E6000013529461448FDF7B1FE01F01DFE134C43
:103E70002079002818D110A801F088FD182210A977
:103E80000AA8FCF78FF900232A4669460A48FDF77D
:103E9000F9FE0B4801990C9A411A801A401A01F058
:103EA00049FDA060012020710020FCF713FF02F003
:103EB000D1FE17B030BD00005C0B0020980100203F
:103EC000FF0700000120704710B500280DD00A4AF6
:103ED0000021CB00D458844209D89B189B688342A8
:103EE00005D9C8008018007B10BD1F2010BD491CDB
:103EF000C9B21529EDD3FEE7A47D000810B501F085
:103F0000FBFE032804D0042803D0052803D000209A
:103F100010BD022010BD012010BD10B501F0E0FE63
:103F2000C01C10BD10B5124C2061124801F07CFF7E
:103F3000002002F037FA012002F0B1F90021084612
:103F400002F076F80421002002F068FA0A48002303
:103F50001A46014602F0BDF80849094802F032FE4F
:103F600007480849143002F02DFE0020A07010BD53
:103F700000000020DD400008FFFF000009410008AC
:103F800098030020F1400008F8B53E4CA0780028C6
:103F900077D0FCF7A9FE0020A070FCF7ADFE01F081
:103FA000A1FE0546384801F091FEE80709D03748E0
:103FB00002F0BEFE2069002803D00068002800D06F
:103FC0008047A8071CD53148143002F0B1FEFF220B
:103FD00069462F4801F0E4FE2D48143801F09CFE9C
:103FE000206900280CD08668002E09D028480D23AF
:103FF00014380C22C3568256684601782448B047CC
:10400000680606D52069002803D00069002800D082
:10401000804728060AD52069002807D08169002931
:1040200004D0E843C005C017401C8847A8051BD52D
:1040300001F062FE042804D001F05EFE052808D0DD
:1040400012E0124802F074FE206900280CD040688B
:1040500007E00E48143002F06BFE2069002803D000
:10406000C068002800D08047A8060AD50748143049
:1040700002F05EFE2069002803D0C068002800D04E
:104080008047F8BD00000020FFFF000098030020DB
:10409000EC010020F8B51D4617460E46012400F03D
:1040A000F9F8304602F002F9002000F05FF8012034
:1040B000FCF793FE02F07EFD064605E001F086FE69
:1040C000B84201DD002404E0304602F077FDA8424A
:1040D000F4D300F0ADFA2046F8BD000010B5034956
:1040E00001208870FFF750FF10BD00000000002085
:1040F00004480069002803D0C068002800D00047A9
:10410000704700000000002004480069002803D028
:104110004068002800D000477047000000000020E1
:1041200070B50025012000F0B5F8002002F0EAF893
:1041300000240120FCF751FE01F048FEC007C00F2B
:10414000A040641C0543E4B2202CF2D300F070FAC6
:10415000284670BD10B501F00BFF10BD10B501F081
:104160000FFF10BD10B501F031FE10BD10B50446B3
:1041700001F02CFD0C4800231A46014601F0A9FF6E
:10418000002C06D02146094802F09AFD074802F0AB
:104190009FFD07484178002901D0064801E0C0682A
:1041A000800102F0AFF810BDFFFF0000AC0300205B
:1041B00000000020FFFFFF0010B504460C4800235C
:1041C0001A46014601F085FF002C06D02146094819
:1041D00002F076FD074802F07BFD07484178002990
:1041E00001D0064801E0C068800102F09DF810BDD2
:1041F000FFFF0000AC03002000000020FFFFFF00D5
:1042000070B50C46054601F0F9FC114800231A462A
:10421000014601F05EFF01F0BDFD01460D48012998
:1042200014D004760B48103001F0CAFF002221465A
:10423000284601F0F5FE0848816806484C3002F037
:104240003FFD04484C3002F043FD70BDC477E9E700
:10425000010200004C0300200000002010B502F015
:1042600025F810BD0A4A034610B51046074C7030B9
:104270006032012B07D0D37D012B03D12170117641
:1042800001F09EFF10BD2170D177F9E700000020FA
:10429000EC02002010B50A4C012805D0002001F0E6
:1042A000E9FF0020607010BD012001F0E3FF61789C
:1042B00020788142F7D0607000F004F810BD000053
:1042C0000300002070B504460B48047044700120C0
:1042D000FFF7E0FF1D208001451C002C04D0342195
:1042E00002F06CF9442103E0142102F067F9242163
:1042F000284602F063F970BD03000020FFB585B0C9
:104300005F4B179A12995A70119A002A02D01A46D6
:10431000117002E05A49FF220A705A4F394698310B
:104320003E4603913C463D46283940366034A03530
:1043300080370291002819D0012873D1002002F0A3
:1043400043F81098C0B201F0D8FE01233B760798DD
:104350004D4AC0B228720699515C69720899A972D7
:104360000699002960D001296CD062E0002002F09B
:104370002BF8002038760798F8610B2028710698F2
:10438000FFF7A2FD6871002020740F98C0007086AE
:1043900004202075182060750020A0751199012057
:1043A0004140374EE175317821761399002902D0CA
:1043B000F221617600E06076A076002001F0F2FF45
:1043C000387E002800D00120FFF764FF039801F039
:1043D0009BFE029801F0F4FE2CA103C9009001910C
:1043E000684601F0F8FF2B4802F058F80798FCF7F0
:1043F00025F902460B4600202749FCF775F80322F1
:10440000FCF7EAF804460D461098FCF717F9224627
:104410002B46FCF701F80022204BFBF7FDFFFCF7D1
:104420003FF9F06009B0F0BD07990B290CD00C29B9
:104430000AD00021E9722374052807D0062805D088
:104440000F9807E00799F2E7EB72F4E70F980C2852
:1044500000D20C20B0871198094DA0772878E0771A
:1044600013983870169878700120FFF713FF03989F
:1044700001F04AFE029801F0A3FE0948E860D1E786
:1044800000000020EC020020A07D0008C194C100C3
:1044900000000000FF0100000000F03F00408F40DE
:1044A000FFFF000010B501F059FF10BDFFB54A4DE8
:1044B00085B02A4698322F4603922C462E46014656
:1044C000283A40370E986034A03680350292002991
:1044D00002D0012977D13BE000212976E8610B2049
:1044E00030711846FFF7F0FC7071079828620020C1
:1044F00020741098C00078860420207518206075FC
:104500000020A075119901204140E1751299002900
:1045100002D0F221617600E06076A076002001F002
:1045200041FF287E002800D00120FFF7B3FE03984A
:1045300001F0EAFD029801F043FE28A103C90090B2
:104540000191684601F047FF264801F0A7FF3AE0D5
:1045500001212976C1B2244A3172D25C72720F9A5B
:10456000B272002B02D0012B02D003E00B280BD03B
:104570000C2809D00020F07201202074052905D0F4
:10458000062903D0109805E00120F4E710980C28C4
:1045900000D20C20B8871198A07714480078E077F3
:1045A0001298287015986870002001F0FBFE287E94
:1045B000002800D00120FFF76DFE039801F0A4FD54
:1045C000029801F0FDFD069801F096FE0749169845
:1045D000886009B0F0BD0000EC020020C194C10069
:1045E00000000000FF010000A07D00080000002086
:1045F00070B514460D4601F059FE284601F07CFEC8
:1046000001F004FF2046FCF719F80022064BFBF7E7
:1046100003FFFCF745F80146044802F051FB03484C
:1046200002F056FB70BD000000408F40AC0300203C
:1046300008B50020694600900878042108436946BF
:104640000870009801F0A2FE0220FCF7C6FB08BD2E
:1046500010B5002001F0A6FE10BD10B501F0F2FC6F
:1046600010BD0000F3B55C4C0146254627460020EE
:1046700080354037603487B0002959D001297DD179
:1046800026464036707A3021484354490C2241185E
:10469000307A0690101AC0000818C11FF939084670
:1046A0000A6C436C01930092B88FFBF7C7FF00229E
:1046B0004B4BFBF7FFFD019B009AFBF7ADFE05910D
:1046C0000490B07A8007800F001DFBF7B7FF0391BD
:1046D0000290F17A0698002900D00221401A800049
:1046E000FBF798FF064608980F46C1000698800021
:1046F000081A297809014018A17F012951D0002109
:10470000401A1C30FBF786FF32463B46FBF7ECFEB7
:1047100002F040FF039B029AFBF77EFE0022054653
:104720000C461346FBF7EEFF3DD2284621463CE0FF
:10473000E869FBF783FF009001910898FBF77EFF83
:104740000E460546617D788EC9084018FBF776FF56
:10475000E27D002A1ED00022224BFBF7ABFD2A4649
:104760003346FBF7A7FD627E022A16D000221346CD
:10477000FBF7A0FD0322FBF72FFF00E029E0019BE0
:10478000009AFBF7B1FE0022174BFBF745FE03F042
:1047900002FA1CE000221346DFE7002201239B07F8
:1047A000E6E71421ACE70020014600220F4BFBF79F
:1047B00081FD019B009AFBF72FFE059B049AFBF7F6
:1047C00079FD0B4A0B4BFBF775FD02F0ABFFFBF7D6
:1047D00067FF09B0F0BD0000EC02002018000020C7
:1047E000000011400000F03F00408F4000002040DA
:1047F0002B8716D9CEF7EF3F10B501F0DFFE10BDC5
:1048000010B501F0E1FE10BD70B51C46049B1546C5
:104810000E46052801D0002070BD224629463046AC
:1048200000F04CFA70BD10B5052801D0002010BD75
:10483000084600F07FFA10BD10B5052802D10846E1
:1048400000F079FA10BD70B514460D46052801D068
:10485000D0B270BD1A462146284600F0A6FA70BDB7
:1048600010B5052802D1084600F0A6FA10BD10B513
:10487000052801D0002010BD084600F0B9FA10BD8F
:1048800030B502460168C07A0C2358430930095CF0
:1048900050680B01C45A00250C33C550507A0028CB
:1048A00009D0907A012805D1106901466143081AA0
:1048B0005168C85030BDD06800F002F9844200D978
:1048C0002046917A002902D1117A002903D011697A
:1048D0004843401AECE75068C55030BD10B50B098D
:1048E00014099C4201D3914201D3002010BD5A000B
:1048F0000C07835A240F0121A1408B4383520120CE
:1049000010BD30B500280AD0002908D0002304E0EB
:104910005C000D5B5B1C0553DBB29342F8D330BDEA
:10492000FFB50E461946099A029800F0A8F900282A
:1049300024D0002425461DE000236F00F15B0120F8
:10494000984001420ED0E0180C2148430A994018C3
:10495000007A01060A0F0107090F029800F08FF98B
:1049600001280BD05B1CDBB2102BE7D310346D1C7D
:10497000E4B2EDB200988442DED3002004B0F0BD72
:10498000FEB5054614460E465800FBF757FE00904C
:1049900060000F460838FBF73DFE2A463346FBF71A
:1049A0003BFD3B46009AFBF785FC2A463346FBF766
:1049B0009BFD02F0EFFDFBF773FEA04200D9044619
:1049C000099804600898FBF739FE00900191204691
:1049D000FBF734FE2A463346FBF71EFD0022D24386
:1049E000FBF7FAFD0C460746022228463146FBF744
:1049F000F3FD3A462346FBF701FD019B009AFBF7C6
:104A0000FDFC02F0C7FDFBF727FE0A990860FEBD1A
:104A100010B5FBF713FE02460B4600200149FBF7D9
:104A200063FD10BD0000204070B506460846FBF748
:104A300005FE054601200C46B040FBF7EBFD2A467B
:104A40002346FBF751FD0022014BFBF7E5FC70BD4F
:104A500000408F4070B514460D464000FBF7D2FD74
:104A60002946FBF722FC2146FBF71BFCFBF736FE31
:104A700002F058FEFBF7F0FD40B270BDF0B5844681
:104A8000964600206246002A01D0012215E000204F
:104A9000F0BD4C0063461F5B1026002423461546DC
:104AA0009D40BD4301D1641CE4B25B1CDBB2B34248
:104AB000F5D32018491CC0B2C9B27145E9D3F0BD85
:104AC0000649884201D2642070470549884202D2D3
:104AD0007D20C000704703487047000080EE36001C
:104AE000803F5C0210270000FFB5044606780220D4
:104AF00083B0205602900325042761786557E75755
:104B000000290BD10F2801D10F2D02D00026072735
:104B1000E75705202056062502906557002E25D020
:104B2000112020566169019100901023E356207AEC
:104B3000E168029AFFF7F4FE002801D1FD2006404B
:104B400018221921A2566156284600F098F800282C
:104B500007D119202056A84201DD054601E0FB20BF
:104B60000640072E02D1002F00D101270499029898
:104B700008700598057006980770304607B0F0BDBC
:104B800003780022032B14D1427813071B0F12065F
:104B90008B70120F4A7082788A80C3781B021A4386
:104BA0008A8000794206520F0007CA70000F087011
:104BB00005221046704700288A6000D14A6070477D
:104BC000FFB50024E44381B01F46002552E0019860
:104BD00000280FD00298002844D0039829010E180D
:104BE000B06801F0EBFF0146F06881422BD3002052
:104BF000F0603DE00398290108180090406801F03A
:104C0000DDFF06460298002803D00098806801F076
:104C1000D5FF864202D90098406804E00298002837
:104C200003D00098806801F0C9FF0099C9688142EB
:104C300002D8002000991AE0002919D0081AA042D1
:104C400016D2044614E0002812D0B06801F0B6FF76
:104C5000F168081AA0420BD2B06801F0AFFFF1680A
:104C60000C1A05E0002403992A0120465118C86057
:104C70006D1CEDB2BD42AAD3204605B0F0BD8842FE
:104C800003DB904201DC012070470020704770B5C3
:104C90001C46049B15460E46052804D1224629468B
:104CA000304600F041F970BD10B5052801D0002054
:104CB00010BD084600F06AF910BD0000FFB50446BB
:104CC0000F460820092681B02056A6576168196052
:104CD00061780025012925D100280BD06168402981
:104CE00001D30125002660291CD3C906C90E01295C
:104CF00003D017E00021196014E01E2269460A70F3
:104D00004870A07A8870684600F05EF940B20028CA
:104D100008D121780025012904D1054907230A88F3
:104D20001A430A80387003980670284605B0F0BD13
:104D3000400100207047F0B587B007465020694613
:104D40000872387910282ED100240325264601E068
:104D5000082D19D23868611C005D00903A68515CDA
:104D60000902084300903A68A11C515C01960904AD
:104D700008436421484300900AD0684603900574B4
:104D800003A800F04BF808E068460096067201960A
:104D90006846057505A800F0AFF8E41C6D1CEDB27F
:104DA000E4B2102DD4D307B0F0BD881A40B2002869
:104DB00000DA0020C0B2704700B585B00A49009102
:104DC0000A490191427869460A7202784A728278E9
:104DD0008A72C278CA7241680391806804906846FA
:104DE000FFF74EFD05B000BD5C0A00204401002025
:104DF00010B50179002903D0012905D0002010BD8C
:104E000001680122044803E0016803480122801C74
:104E1000FFF777FD012010BD40010020F8B50546E1
:104E20000020694608702E7904460746102E01D3EB
:104E30000320F8BD28680722007A00210007001728
:104E4000FFF71DFF002800D10124286808214156E2
:104E5000072208110021FFF712FF002800D10124CA
:104E6000296808200856010709170211914200DD40
:104E70000124032E12D2002900DD01240011072293
:104E80000521FFF7FCFE002800D1012428681849FD
:104E900002680C207043085882420AD1286869468B
:104EA000006802F097F9002803D03C4203D00620A6
:104EB000F8BD0127F9E7002C01D00520F8BD002F2F
:104EC00001D00420F8BD0C2032464243084829682E
:104ED00014180C22204602F00FFD6846007860721C
:104EE000044801220188B240114301800020F8BD2E
:104EF0005C0A00204001002010B50178032901D28E
:104F0000002010BD0C22064B4A430020D21810602E
:104F10005060906010220348FFF7E0FC10BD0000D5
:104F20005C0A002040010020FFB583B01C461646F5
:104F3000072800DB07206070FBF79CFFA0700120B2
:104F40002056104A072819D08100134618335958A3
:104F5000105CFFF769FD05460B480F46C06D8047A2
:104F600021460C31083402910090334601942846C2
:104F70003946049AFFF704FD07B0F0BD105CFFF757
:104F800047FDE8E764810008347D000838B5054630
:104F90000020694608700324686802F01BF90028A5
:104FA00000D1022429780C20414306484258002AA7
:104FB00001D1FD221440032C02D108186A68426016
:104FC000204638BD5C0A002070B5024615787D2168
:104FD000C90000204C002B0002F06FF91F191919AD
:104FE0001919191919191A1E2426282A2C2E30339A
:104FF0001938193A3C3F411919434611190001204B
:1050000010560021002801D0401EC1B248B270BD28
:1050100001201056154903E00120144910560831AB
:10502000085C70BD012070BD114870BD084670BDA0
:10503000204670BD0F4870BD0F4870BD0120800331
:1050400070BD0E4802F09CFD001970BD0C4870BD8B
:105050000C4870BD0B48801C70BD102070BD0A4804
:1050600070BD8320C00570BD084870BD6C8100080C
:10507000B80B0000881300007017000018FCFFFF39
:1050800008E6D333400100205C0A00209A990940C9
:1050900070B5124A002804D0012817D0022814D174
:1050A0000EE00F480F490346383338CB38C103466A
:1050B000443338CB38C1503019C819C1072010808B
:1050C00006490122881EFFF71CFC70BD03481288A8
:1050D000801E01881143018070BD00004201002044
:1050E000648100085C0A0020FFB507258FB00446E4
:1050F00000266846374606803AE0206802A98019F3
:10510000FFF73EFD002836D03018C6B269468889C0
:105110000880C97A0725084304D0481E042801D90D
:10512000072901D3062523E0002006290CD06B4671
:1051300001221B8882401A4216D00C22324B424375
:105140009A58002A0ED00FE00C222F4B42439A5857
:10515000002A09D06B4601221B8882401A436B4605
:105160001A8001E06D086D00401CC0B21028DCD32D
:105170002079B042C1D801216846017161798171FD
:1051800001A8FFF721FF014668460574A279427421
:10519000427A8274827AC274027A0275E279427526
:1051A000227A8275627AC27510220276079008A868
:1051B0000170072141701448099008A8017202ABE0
:1051C00047729A1C511E04A8FFF78EFC044607285C
:1051D00008D1022200210D4802F0A6FB68460B49C7
:1051E000008808806846417A109801706846817A84
:1051F000119801706846017A12980170189806702B
:10520000204613B0F0BD00005C0A002040010020E1
:105210003EB5016803240A68002A0DD00091007988
:10522000694608716846FFF7F9FD002812D0042886
:105230000BD005280DD10AE000796946087202A852
:10524000FFF75AFE002804D004E0022402E0012403
:1052500000E0002420463EBDFFB589B0044600258D
:105260006846057316461F46049505950695012266
:10527000294626480795FFF701FC002804D123485A
:105280000722018811430180606801F097FC2168C2
:10529000884222D33D601D4AA17A607A0523121DFF
:1052A000FFF78EFC0746194803AA04A9001D6B46A8
:1052B00007C3217A607A164B144AFBF73FFD00289A
:1052C00014D0411E002002F05BFC04A9095C0A987E
:1052D0000170002035600DB0F0BD6946087B401CB0
:1052E0000873606801F06AFC21680F1A6846007B49
:1052F000002802D00B203760EDE704480722018820
:10530000114301800C203560E5E7000040010020DA
:105310005C0A0020F3B50125314E04464557476825
:1053200070688DB08047002802D000200FB0F0BD1B
:10533000E07C002809D121780C20414329484758B6
:1053400008184068002800D00746274840570B90AF
:10535000F1683846884700200121072D23D001221B
:105360000A92A27C07AB069007C32189059089B2F7
:105370000291082103900490019100900123B769E4
:10538000A17818460B9AB847607C012824D01648AB
:105390000830405D726D0D30C1B20A9890470E988A
:1053A00005700120C2E700220A92A27C06900790B5
:1053B000099208902289059192B2052102920191E9
:1053C0000A4A00927D210B9AC9004A430390049037
:1053D00000230749B769D6E703481030D9E7000032
:1053E000347D00085C0A00206481000885450100C6
:1053F00050C3000070B50F490546096A072440688C
:105400008847002800D106240020285607220021C2
:10541000FFF735FC002801D1FD200440012028566B
:1054200005220021FFF72BFC002801D1FB200440BE
:10543000204670BD347D000810B501780C23594317
:10544000054B4268C918497A044B0901C9184078CC
:10545000FFF7B1FB10BD00005C0A002044010020F2
:1054600070B502220446825601780C200B4B414352
:10547000C818407A0A4D0001451902202856824278
:1054800000DD10465D58A2686168FFF7E3FA014647
:105490000448A289C36B2846984770BD5C0A002067
:1054A00044010020347D0008F7B5044622780C231F
:1054B0002F4E5A430120921920562C49527A2D4BD7
:1054C0000F5612010221D2180225615655578CB091
:1054D000A94200DD0D46FBF7CDFC0B902846A268E3
:1054E0006168FFF7B7FA0A9020780C2148433058DA
:1054F000214EF168884761780020204B012207295E
:1055000021D001210991014605900690079010468F
:105510000893082201900097029203910490F76982
:105520000B9B00220A99B847726D217B099890471E
:10553000726A217B099890470E9908600D98057052
:1055400001200FB0F0BD00210991079005210291C3
:105550007D2106900893C9000590019004924F4365
:1055600003900097F769064A0B9BDBE7648100080C
:105570005C0A002044010020347D0008B80B0000C4
:10558000A86100000020C043704710B5091F0B0040
:1055900001F093FE080509050505141412140023F3
:1055A000C356072202E00023C356052200211846F5
:1055B000FFF765FB002800D0012010BD002010BDC2
:1055C00010B50022052801D0104610BD0846FFF78F
:1055D000FBFC10BD10B5052802D10846FFF758FDA9
:1055E00010BD052801D00020704701207047F8B594
:1055F0001C460E46069B07991546052801D000203B
:10560000F8BD0091224629463046FFF76DFDF8BDF2
:1056100010B5052801D0002010BD0846FFF7F8FDA1
:1056200010BD70B51C46049B15460E46052801D0DA
:105630000A2070BD224629463046FFF70DFE70BD98
:1056400010B50B46052801D0002010BD11461846A4
:10565000FFF760FE10BD10B5052801D0002010BD79
:105660000846FFF7C7FE10BD10B5052802D1084651
:10567000FFF7E2FE10BD10B5052802D10846FFF77E
:10568000EFFE10BD70B514460D46052801D0002070
:1056900070BD1A4621462846FFF706FF70BD10B5BB
:1056A000052801D0002010BD0846FFF76BFF10BD94
:1056B00010B50B46052801D0002010BD1146184634
:1056C000FFF763FF10BD0000F8B51F4C0025E57023
:1056D0006562A562E562A572012020736073A573FF
:1056E000E572E08325726572A07018480146027861
:1056F00038390A7042784A70024620325378203195
:105700004B700346583B1E4637467C37F66F7F6822
:105710009F645E64137B0B73527B4A732039026B68
:105720000A63416B383841630221E07BFFF752FF87
:105730006571A571E571206A01E04562806A002803
:10574000FBD125756575F8BDB8000020180700204D
:1057500010B504000BD0002000F086F800F0EAF845
:10576000A04206D27D210906091B081810BD0020A1
:1057700010BD001B10BD00000FB4F0B587B00E4681
:1057800018220EA96846FAF70DFD3449109A08A8A8
:10579000891A7205520D51188FB2F10A304E837F6B
:1057A000457F047F807E724202E08919401C80B2EE
:1057B0009142FAD2E1221201914206D3891A641C65
:1057C000A4B2F9E76D1CADB23C393C29FAD25918A4
:1057D0008EB20121C90203E07A1A761C97B2B6B2E2
:1057E0008F42F9D203E03C3E6D1CB6B2ADB23C2E06
:1057F000F9D203E03C3D641CADB2A4B23C2DF9D219
:1058000003E0183C401CA4B280B2182CF9D208A9BD
:10581000CA7E497E002A1ED092071CD0114A521E11
:10582000895C814206D2FAF763FC08466A465178E1
:10583000491C517009491822C91B029169468E7191
:105840004D710C7188700C98FAF7ACFC07B0F0BC85
:1058500008BC04B01847034A0C32E0E7FF07000019
:1058600080AEFEFFC081000830B500248DB0002856
:105870000AD0182201466846FAF794FC69460020CF
:10588000274A284BC9780CE006A800F07FF81822B8
:1058900006A9F0E7002810D085070ED0E418401CB8
:1058A00000B28142F6DC002909D0880707D069469A
:1058B000497800201C4A491E17E0A418EFE71A4A4D
:1058C0006946497800200C32491E05E0135C174DEB
:1058D0006B431C19401CC0B28142F7DC07E0135C2B
:1058E000124D6B431C19401CC0B28142F7DC684664
:1058F000817940793C2250430A1868460179E120B9
:105900000001414368468078084B58430818101836
:10591000074A02990019C002511A40180DB030BD53
:105920000085E2018033E101C0810008805101005F
:10593000FF07000010B5FAF781FE0022054BFAF7C9
:105940006BFD0722D243FAF747FE02F029F9FAF776
:10595000A7FE10BD00405F400B498B6800229842B3
:1059600005D90B78002B02D00A708B68C01A8B689F
:10597000984202D9322801D24A70704701224A70F7
:105980008968401A7047000098010020F0B587B080
:10599000074600226C460D4801A9FCF7DBF9029E80
:1059A00000E02E460022211D0848FCF7D3F9029D95
:1059B000AE42F6D1002269460448FCF7A9F9182244
:1059C00069463846FAF7EEFB07B0F0BD5C0B0020E5
:1059D00010B50020FFF748FF04460648FFF744FFD4
:1059E000844202D2201A401E00E0201AFFF7A2FFD4
:1059F00010BD0000800B002010B50020FFF734FF21
:105A00000446FFF797FF2046FFF794FF10BD000004
:105A100070B5204D86B0E878002838D11E4801695D
:105A200001229204114301611C491D48002412C047
:105A30000F210160846004611A49446141600838A3
:105A4000FCF7B6F96846C4700126467086700621D8
:105A50000170002269461248FCF7D2FA68460471C8
:105A6000447184710394C4710494002201A90C4808
:105A70000594FCF727FB0A48FCF759F8002201219E
:105A80000220FBF76DFC0220FBF760FCEE7006B015
:105A900070BD000098010020401002400028004026
:105AA0005C0B0020FF07000010B50D484168C9439A
:105AB000C9070FD00B49012008700B48C1680907BE
:105AC000890F012903D0C0680007800F01D1FBF7BF
:105AD00021F910BD0168042211430160EDE70000C7
